{
  "contractName": "nftSibmWhitelist",
  "abi": [
    {
      "inputs": [],
      "stateMutability": "nonpayable",
      "type": "constructor"
    },
    {
      "inputs": [],
      "name": "admin",
      "outputs": [
        {
          "internalType": "address",
          "name": "",
          "type": "address"
        }
      ],
      "stateMutability": "view",
      "type": "function"
    },
    {
      "inputs": [
        {
          "internalType": "uint256",
          "name": "",
          "type": "uint256"
        }
      ],
      "name": "whitelist",
      "outputs": [
        {
          "internalType": "address payable",
          "name": "",
          "type": "address"
        }
      ],
      "stateMutability": "view",
      "type": "function"
    },
    {
      "inputs": [],
      "name": "connect",
      "outputs": [],
      "stateMutability": "nonpayable",
      "type": "function"
    },
    {
      "inputs": [],
      "name": "mintDays",
      "outputs": [
        {
          "internalType": "uint256",
          "name": "",
          "type": "uint256"
        }
      ],
      "stateMutability": "view",
      "type": "function"
    }
  ],
  "bytecode": "0x608060405234801561001057600080fd5b50336000806101000a81548173ffffffffffffffffffffffffffffffffffffffff021916908373ffffffffffffffffffffffffffffffffffffffff1602179055506241eb0042610060919061006b565b6002819055506100fa565b6000610076826100c1565b9150610081836100c1565b9250827fffffffffffffffffffffffffffffffffffffffffffffffffffffffffffffffff038211156100b6576100b56100cb565b5b828201905092915050565b6000819050919050565b7f4e487b7100000000000000000000000000000000000000000000000000000000600052601160045260246000fd5b6102f0806101096000396000f3fe608060405234801561001057600080fd5b506004361061004c5760003560e01c806348e2f925146100515780637ebd1b301461006f578063948cb7191461009f578063f851a440146100a9575b600080fd5b6100596100c7565b604051610066919061023a565b60405180910390f35b610089600480360381019061008491906101ae565b6100d1565b604051610096919061021f565b60405180910390f35b6100a7610110565b005b6100b1610175565b6040516100be9190610204565b60405180910390f35b6000600254905090565b600181815481106100e157600080fd5b906000526020600020016000915054906101000a900473ffffffffffffffffffffffffffffffffffffffff1681565b6001339080600181540180825580915050600190039060005260206000200160009091909190916101000a81548173ffffffffffffffffffffffffffffffffffffffff021916908373ffffffffffffffffffffffffffffffffffffffff160217905550565b60008054906101000a900473ffffffffffffffffffffffffffffffffffffffff1681565b6000813590506101a8816102a3565b92915050565b6000602082840312156101c057600080fd5b60006101ce84828501610199565b91505092915050565b6101e081610267565b82525050565b6101ef81610255565b82525050565b6101fe81610299565b82525050565b600060208201905061021960008301846101e6565b92915050565b600060208201905061023460008301846101d7565b92915050565b600060208201905061024f60008301846101f5565b92915050565b600061026082610279565b9050919050565b600061027282610279565b9050919050565b600073ffffffffffffffffffffffffffffffffffffffff82169050919050565b6000819050919050565b6102ac81610299565b81146102b757600080fd5b5056fea26469706673582212208d8f28844afb4c37a8b499767f5612c50963accff30cd46227316665e94cad5e64736f6c63430008020033",
  "immutableReferences": {},
  "source": "// SPDX-License-Identifier: MIT\npragma solidity ^0.8.2;\n\n\ncontract nftSibmWhitelist {\n    \n    address public admin;\n    address payable[] public whitelist;\n\n    uint256 daysLeft;\n\n    constructor() {\n        admin = msg.sender;\n        daysLeft = block.timestamp + 50 days;\n    }\n            //createNft\n    function connect() public{\n        whitelist.push(payable(msg.sender));\n    }\n    \n    function mintDays() public view returns(uint256){\n        return daysLeft;\n    }\n    \n}",
  "sourcePath": "/Users/andrew/Documents/Work/SIBM-Test/contracts/nftSibmWhitelist.sol",
  "compiler": {
    "name": "solc",
    "version": "0.8.2+commit.661d1103.Emscripten.clang"
  },
  "schemaVersion": "3.4.1",
  "updatedAt": "2022-02-21T06:07:07.022Z",
  "devdoc": {
    "kind": "dev",
    "methods": {},
    "version": 1
  },
  "userdoc": {
    "kind": "user",
    "methods": {},
    "version": 1
  }
}