{
  "contractName": "WhitelistV2",
  "abi": [
    {
      "inputs": [],
      "stateMutability": "nonpayable",
      "type": "constructor"
    },
    {
      "inputs": [],
      "name": "admin",
      "outputs": [
        {
          "internalType": "address",
          "name": "",
          "type": "address"
        }
      ],
      "stateMutability": "view",
      "type": "function"
    },
    {
      "inputs": [],
      "name": "whiteListCount",
      "outputs": [
        {
          "internalType": "uint256",
          "name": "",
          "type": "uint256"
        }
      ],
      "stateMutability": "view",
      "type": "function"
    },
    {
      "inputs": [
        {
          "internalType": "address",
          "name": "addr",
          "type": "address"
        }
      ],
      "name": "JoinWhitelist",
      "outputs": [],
      "stateMutability": "nonpayable",
      "type": "function"
    },
    {
      "inputs": [],
      "name": "MintuesLeft",
      "outputs": [
        {
          "internalType": "uint256",
          "name": "",
          "type": "uint256"
        }
      ],
      "stateMutability": "view",
      "type": "function"
    },
    {
      "inputs": [
        {
          "internalType": "address",
          "name": "addr",
          "type": "address"
        }
      ],
      "name": "WhiteListRank",
      "outputs": [
        {
          "internalType": "uint256",
          "name": "",
          "type": "uint256"
        }
      ],
      "stateMutability": "view",
      "type": "function"
    }
  ],
  "bytecode": "0x608060405234801561001057600080fd5b50336000806101000a81548173ffffffffffffffffffffffffffffffffffffffff021916908373ffffffffffffffffffffffffffffffffffffffff1602179055506241eb0042610060919061007b565b6004819055506064600381905550600060028190555061010a565b6000610086826100d1565b9150610091836100d1565b9250827fffffffffffffffffffffffffffffffffffffffffffffffffffffffffffffffff038211156100c6576100c56100db565b5b828201905092915050565b6000819050919050565b7f4e487b7100000000000000000000000000000000000000000000000000000000600052601160045260246000fd5b6105c8806101196000396000f3fe608060405234801561001057600080fd5b50600436106100575760003560e01c8063399dccb61461005c57806339bbff121461007a5780633d80cc811461009657806376f03db2146100b4578063f851a440146100e4575b600080fd5b610064610102565b6040516100719190610388565b60405180910390f35b610094600480360381019061008f91906102e3565b610108565b005b61009e610193565b6040516100ab9190610388565b60405180910390f35b6100ce60048036038101906100c991906102e3565b6101c8565b6040516100db9190610388565b60405180910390f35b6100ec6102aa565b6040516100f9919061034d565b60405180910390f35b60025481565b6000610112610193565b1180156101225750600354600254105b156101905780600160006002600081548092919061013f906104ab565b91905055815260200190815260200160002060006101000a81548173ffffffffffffffffffffffffffffffffffffffff021916908373ffffffffffffffffffffffffffffffffffffffff1602179055505b50565b60004260045411156101c057603c426004546101af919061043b565b6101b9919061040a565b90506101c5565b600090505b90565b600080600090505b600254811015610269578273ffffffffffffffffffffffffffffffffffffffff166001600083815260200190815260200160002060009054906101000a900473ffffffffffffffffffffffffffffffffffffffff1673ffffffffffffffffffffffffffffffffffffffff1614156102565760018161024e91906103b4565b9150506102a5565b8080610261906104ab565b9150506101d0565b506040517f08c379a000000000000000000000000000000000000000000000000000000000815260040161029c90610368565b60405180910390fd5b919050565b60008054906101000a900473ffffffffffffffffffffffffffffffffffffffff1681565b6000813590506102dd8161057b565b92915050565b6000602082840312156102f557600080fd5b6000610303848285016102ce565b91505092915050565b6103158161046f565b82525050565b60006103286011836103a3565b915061033382610552565b602082019050919050565b610347816104a1565b82525050565b6000602082019050610362600083018461030c565b92915050565b600060208201905081810360008301526103818161031b565b9050919050565b600060208201905061039d600083018461033e565b92915050565b600082825260208201905092915050565b60006103bf826104a1565b91506103ca836104a1565b9250827fffffffffffffffffffffffffffffffffffffffffffffffffffffffffffffffff038211156103ff576103fe6104f4565b5b828201905092915050565b6000610415826104a1565b9150610420836104a1565b9250826104305761042f610523565b5b828204905092915050565b6000610446826104a1565b9150610451836104a1565b925082821015610464576104636104f4565b5b828203905092915050565b600061047a82610481565b9050919050565b600073ffffffffffffffffffffffffffffffffffffffff82169050919050565b6000819050919050565b60006104b6826104a1565b91507fffffffffffffffffffffffffffffffffffffffffffffffffffffffffffffffff8214156104e9576104e86104f4565b5b600182019050919050565b7f4e487b7100000000000000000000000000000000000000000000000000000000600052601160045260246000fd5b7f4e487b7100000000000000000000000000000000000000000000000000000000600052601260045260246000fd5b7f41646472657373206e6f7420666f756e64000000000000000000000000000000600082015250565b6105848161046f565b811461058f57600080fd5b5056fea2646970667358221220412599033f5c08264ed23bc8c5c8d924f38cfc72d6d9918fe6aff1835a5f30e664736f6c63430008020033",
  "immutableReferences": {},
  "source": "// SPDX-License-Identifier: MIT\npragma solidity ^0.8.2;\n\n\ncontract WhitelistV2 {\n    \n    address public admin;\n    //address payable[] whitelist;\n    //address[] whitelist;\n    mapping(uint256 => address) whitelist;\n    uint256 public whiteListCount;\n    uint256 whiteListMax;\n\n    uint256 endDate;\n\n    constructor() {\n        admin = msg.sender;\n        endDate = block.timestamp + 50 days;\n        whiteListMax = 100;\n        whiteListCount = 0;\n    }\n            //createNft\n    function JoinWhitelist(address addr) public {\n        //require(block.timestamp < endDate, \"Whitelist has Closed\"); \n        //require(whiteListCount < whiteListMax, \"Whitelist ha reached capacity\");\n        if (MintuesLeft() > 0 && whiteListCount < whiteListMax)\n            {\n            whitelist[whiteListCount++] = addr;\n            //whiteListCount++\n            //whitelist.push(addr);\n            }\n    }\n    \n    function MintuesLeft() public view returns(uint256){\n        if (endDate > block.timestamp)\n            {\n            return (endDate - block.timestamp) / 60;\n            }\n        return 0;\n    }\n\n    function WhiteListRank(address addr) public view returns(uint){\n        for (uint i = 0; i < whiteListCount; i++)\n            {   \n            if (whitelist[i] == addr)\n                {\n                return i + 1;\n                }\n            }\n        revert(\"Address not found\");\n    }\n    \n}",
  "sourcePath": "/Users/andrew/Documents/Work/SIBM-Test/contracts/nftSibmWhitelist.sol",
  "compiler": {
    "name": "solc",
    "version": "0.8.2+commit.661d1103.Emscripten.clang"
  },
  "schemaVersion": "3.4.1",
  "updatedAt": "2022-02-21T06:12:53.279Z",
  "devdoc": {
    "kind": "dev",
    "methods": {},
    "version": 1
  },
  "userdoc": {
    "kind": "user",
    "methods": {},
    "version": 1
  }
}